S01700004763634170706C69636174696F6E312E737265635B
S1130000B2C00000D1C00000CFC00000CDC00000CD
S1130010CBC000000C94ED0F0C94C00FC5C00000C1
S1130020C3C00000C1C00000BFC00000BDC00000CC
S1130030BBC00000B9C00000B7C00000B5C00000DC
S1130040B3C00000B1C00000AFC00000ADC00000EC
S1130050ABC00000A9C00000A7C00000A5C00000FC
S1130060A3C00000A1C000009FC000009DC000000C
S11300709BC0000099C0000097C0000095C000001C
S113008093C0000091C000008FC000008DC000002C
S11300908BC0000089C0000087C0000085C000003C
S11300A083C0000081C000007FC000007DC000004C
S11300B07BC0000079C0000077C0000075C000005C
S11300C073C0000071C000006FC000006DC000006C
S11300D06BC0000069C0000067C0000065C000007C
S11300E063C0000007634236B79BD8A71A39685625
S11300F018AEBAAB558C1D3CB7CC5763BD6DEDFD46
S1130100753EF6177231BF000000803F0800000002
S1130110BE922449123EABAAAA2ABECDCCCC4C3EF8
S113012000000080BEABAAAAAA3E00000000BF00E7
S11301300000803F0000000000084178D3BB4387E3
S1130140D1133D190E3CC3BD4282AD2B3E68EC82F7
S113015076BED98FE1A93E4C80EFFFBE01C4FF7F7C
S11301603F000000000011241FBECFEFD1E2DEBF2C
S1130170CDBF00E00CBF12E0A0E0B2E0E2E7F6E49D
S113018000E00BBF02C007900D92A431B107D9F76C
S113019022E0A4E1B2E001C01D92A533B207E1F769
S11301A00E947B110C9437232BCF0F931F93CF9373
S11301B0DF93CDB7DEB7C057D1090FB6F894DEBFD1
S11301C00FBECDBF80E090E0A0E8BFE389839A83AF
S11301D0AB83BC8326E636E646E655E469817A813C
S11301E08B819C810E946021DC01CB018D839E83E5
S11301F0AF83B88720E030E040E85FE36D817E8123
S11302008F8198850E940D2088232CF481E090E052
S11302109A8789873FC020E03FEF4FE757E46D811D
S11302207E818F8198850E945C2118164CF520E010
S113023030E040E251E469817A818B819C810E94A3
S11302406021DC01CB01BC01CD010E947E20DC01D8
S1130250CB019A8789870FC080E791E09C878B87C1
S11302608B859C850197F1F79C878B8789859A8577
S113027001979A87898789859A85009769F714C0B9
S11302806D817E818F8198850E947E20DC01CB0167
S11302909A87898789859A859E878D878D859E858E
S11302A00197F1F79E878D8788E290E028E230E09D
S11302B0F90120812E7FFC01208388E290E028E26E
S11302C030E0F90120812D7FFC01208388E290E059
S11302D020E3FC01208388E290E028E230E0F90189
S11302E020812460FC01208380E090E0A0EAB0E457
S11302F08F87988BA98BBA8B26E636E646E655E4BB
S11303006F85788989899A890E946021DC01CB01F3
S11303108B8B9C8BAD8BBE8B20E030E040E85FE3A1
S11303206B897C898D899E890E940D2088232CF4F9
S113033081E090E0988F8F8B3FC020E03FEF4FE744
S113034057E46B897C898D899E890E945C211816EB
S11303504CF520E030E040E251E46F8578898989EA
S11303609A890E946021DC01CB01BC01CD010E946D
S11303707E20DC01CB01988F8F8B0FC080E791E04A
S11303809A8F898F898D9A8D0197F1F79A8F898F2A
S11303908F89988D0197988F8F8B8F89988D00976F
S11303A069F714C06B897C898D899E890E947E209F
S11303B0DC01CB01988F8F8B8F89988D9C8F8B8FCD
S11303C08B8D9C8D0197F1F79C8F8B8F88E290E049
S11303D028E230E0F90120812B7FFC01208380E0BA
S11303E090E0A0E8BFE38D8F9E8FAF8FB8A326E681
S11303F036E646E655E46D8D7E8D8F8D98A10E947C
S11304006021DC01CB0189A39AA3ABA3BCA320E0A8
S113041030E040E85FE369A17AA18BA19CA10E942E
S11304200D2088232CF481E090E09EA38DA33FC08F
S113043020E03FEF4FE757E469A17AA18BA19CA18B
S11304400E945C2118164CF520E030E040E251E4B3
S11304506D8D7E8D8F8D98A10E946021DC01CB0172
S1130460BC01CD010E947E20DC01CB019EA38DA3A3
S11304700FC080E791E098A78FA38FA198A501975B
S1130480F1F798A78FA38DA19EA101979EA38DA399
S11304908DA19EA1009769F714C069A17AA18BA1CF
S11304A09CA10E947E20DC01CB019EA38DA38DA183
S11304B09EA19AA789A789A59AA50197F1F79AA75A
S11304C089A788E290E028E230E0F90120812E7FBC
S11304D0FC01208388E290E028E230E0F9012081E9
S11304E02D7FFC01208388E290E020E3FC0120833F
S11304F088E290E028E230E0F90120812460FC01E8
S1130500208380E090E0A0EAB0E48BA79CA7ADA78D
S1130510BEA726E636E646E655E46BA57CA58DA582
S11305209EA50E946021DC01CB018FA798ABA9ABEB
S1130530BAAB20E030E040E85FE36FA578A989A971
S11305409AA90E940D2088232CF481E090E09CABB2
S11305508BAB3FC020E03FEF4FE757E46FA578A98E
S113056089A99AA90E945C2118164CF520E030E074
S113057040E251E46BA57CA58DA59EA50E94602157
S1130580DC01CB01BC01CD010E947E20DC01CB014A
S11305909CAB8BAB0FC080E791E09EAB8DAB8DA97C
S11305A09EA90197F1F79EAB8DAB8BA99CA90197EE
S11305B09CAB8BAB8BA99CA9009769F714C06FA562
S11305C078A989A99AA90E947E20DC01CB019CAB61
S11305D08BAB8BA99CA998AF8FAB8FA998AD0197D2
S11305E0F1F798AF8FAB88E290E028E230E0F901B0
S11305F020812B7FFC01208380E090E0A0E8BFE312
S113060089AF9AAFABAFBCAF26E636E646E655E413
S113061069AD7AAD8BAD9CAD0E946021DC01CB014C
S11306209E01235C3F4FF90180839183A283B383AE
S113063020E030E040E85FE3CE01CD96FC0160812C
S11306407181828193810E940D2088234CF4CE0114
S11306508F5B9F4F21E030E0FC013183208367C032
S113066020E03FEF4FE757E4CE01CD96FC016081D7
S11306707181828193810E945C2118160CF046C01E
S113068020E030E040E251E469AD7AAD8BAD9CAD41
S11306900E946021DC01CB018E010F5B1F4FBC0166
S11306A0CD010E947E20DC01CB01F801918380837F
S11306B024C0CE018D5B9F4F20E731E0FC013183E4
S11306C02083CE018D5B9F4FFC0180819181019736
S11306D0F1F79E012D5B3F4FF90191838083CE0199
S11306E08F5B9F4F9E012F5B3F4FF901208131812A
S11306F021503109FC0131832083CE018F5B9F4F50
S1130700FC01808191810097A1F62BC08E010F5BC3
S11307101F4FCE01CD96FC0160817181828193814E
S11307200E947E20DC01CB01F80191838083CE01FD
S11307308B5B9F4F9E012F5B3F4FF90120813181DD
S1130740FC0131832083CE018B5B9F4FFC018081B0
S113075091810197F1F79E012B5B3F4FF901918342
S1130760808388E290E028E230E0F90120812E7F46
S1130770FC01208388E290E028E230E0F901208146
S11307802D7FFC01208388E290E020E3FC0120839C
S113079088E290E028E230E0F90120812460FC0145
S11307A020839E01295B3F4F80E090E0A0EAB0E403
S11307B0F90180839183A283B3838E01055B1F4F6C
S11307C0CE01895B9F4F26E636E646E655E4FC01FA
S11307D060817181828193810E946021DC01CB015F
S11307E0F80180839183A283B383CE01855B9F4FFD
S11307F020E030E040E85FE3FC01608171818281A8
S113080093810E940D2088234CF4CE01815B9F4F7D
S113081021E030E0FC01318320836DC0CE01855B93
S11308209F4F20E03FEF4FE757E4FC016081718167
S1130830828193810E945C2118160CF04AC0CE017B
S1130840895B9F4F20E030E040E251E4FC0160818D
S11308507181828193810E946021DC01CB018E0130
S1130860015B1F4FBC01CD010E947E20DC01CB0146
S1130870F8019183808324C0CE018F5A9F4F20E7D3
S113088031E0FC0131832083CE018F5A9F4FFC015C
S1130890808191810197F1F79E012F5A3F4FF90111
S11308A091838083CE01815B9F4F9E01215B3F4FEB
S11308B0F9012081318121503109FC0131832083E8
S11308C0CE01815B9F4FFC01808191810097A1F64D
S11308D02CC08E01015B1F4FCE01855B9F4FFC0135
S11308E060817181828193810E947E20DC01CB0131
S11308F0F80191838083CE018D5A9F4F9E01215B25
S11309003F4FF90120813181FC0131832083CE01E5
S11309108D5A9F4FFC01808191810197F1F79E01CF
S11309202D5A3F4FF9019183808388E290E028E2B9
S113093030E0F90120812B7FFC0120839E012B5A9A
S11309403F4F80E090E0A0E8BFE3F901808391830A
S1130950A283B3838E01075A1F4FCE018B5A9F4F38
S113096026E636E646E655E4FC0160817181828123
S113097093810E946021DC01CB01F8018083918383
S1130980A283B383CE01875A9F4F20E030E040E832
S11309905FE3FC0160817181828193810E940D205B
S11309A088234CF4CE01835A9F4F21E030E0FC01B0
S11309B0318320836DC0CE01875A9F4F20E03FEFE3
S11309C04FE757E4FC0160817181828193810E9429
S11309D05C2118160CF04AC0CE018B5A9F4F20E0C0
S11309E030E040E251E4FC016081718182819381B5
S11309F00E946021DC01CB018E01035A1F4FBC0110
S1130A00CD010E947E20DC01CB01F801918380831B
S1130A1024C0CE01815A9F4F20E731E0FC0131838D
S1130A202083CE01815A9F4FFC01808191810197DF
S1130A30F1F79E01215A3F4FF90191838083CE0142
S1130A40835A9F4F9E01235A3F4FF90120813181E0
S1130A5021503109FC0131832083CE01835A9F4FF9
S1130A60FC01808191810097A1F62CC08E01035A6C
S1130A701F4FCE01875A9F4FFC0160817181828193
S1130A8093810E947E20DC01CB01F8019183808355
S1130A90CE018F599F4F9E01235A3F4FF901208168
S1130AA03181FC0131832083CE018F599F4FFC019A
S1130AB0808191810197F1F79E012F593F4FF901F0
S1130AC09183808388E290E028E230E0F90120817C
S1130AD02E7FFC01208388E290E028E230E0F901D7
S1130AE020812D7FFC01208388E290E020E2FC013C
S1130AF0208388E290E028E230E0F901208124603C
S1130B00FC0120839E012D593F4F80E090E0A0EA34
S1130B10B0E4F90180839183A283B3838E010959E0
S1130B201F4FCE018D599F4F26E636E646E655E423
S1130B30FC0160817181828193810E946021DC01CA
S1130B40CB01F80180839183A283B383CE018959B9
S1130B509F4F20E030E040E85FE3FC016081718159
S1130B60828193810E940D2088234CF4CE01855903
S1130B709F4F21E030E0FC01318320836DC0CE0122
S1130B8089599F4F20E03FEF4FE757E4FC01608114
S1130B907181828193810E945C2118160CF04AC0F5
S1130BA0CE018D599F4F20E030E040E251E4FC013A
S1130BB060817181828193810E946021DC01CB017B
S1130BC08E0105591F4FBC01CD010E947E20DC011E
S1130BD0CB01F8019183808324C0CE0183599F4FB8
S1130BE020E731E0FC0131832083CE0183599F4FFC
S1130BF0FC01808191810197F1F79E0123593F4FB8
S1130C00F90191838083CE0185599F4F9E01255917
S1130C103F4FF9012081318121503109FC01318399
S1130C202083CE0185599F4FFC01808191810097DB
S1130C30A1F62CC08E0105591F4FCE0189599F4F33
S1130C40FC0160817181828193810E947E20DC019C
S1130C50CB01F80191838083CE0181599F4F9E017E
S1130C6025593F4FF90120813181FC0131832083D3
S1130C70CE0181599F4FFC01808191810197F1F749
S1130C809E0121593F4FF9019183808388E290E0CE
S1130C9028E230E0F90120812B7FFC012083C05938
S1130CA0DF4F0FB6F894DEBF0FBECDBFDF91CF91FB
S1130CB01F910F910895CF93DF93CDB7DEB72E9791
S1130CC00FB6F894DEBF0FBECDBF80E090E0A0E881
S1130CD0BFE389839A83AB83BC8326E636E646E684
S1130CE055E469817A818B819C810E946021DC01B9
S1130CF0CB018D839E83AF83B88720E030E040E84A
S1130D005FE36D817E818F8198850E940D20882309
S1130D102CF481E090E09A8789873FC020E03FEF80
S1130D204FE757E46D817E818F8198850E945C2115
S1130D3018164CF520E030E040E251E469817A81F4
S1130D408B819C810E946021DC01CB01BC01CD011F
S1130D500E947E20DC01CB019A8789870FC080E73F
S1130D6091E09C878B878B859C850197F1F79C8705
S1130D708B8789859A8501979A87898789859A853A
S1130D80009769F714C06D817E818F8198850E94D8
S1130D907E20DC01CB019A87898789859A859E8785
S1130DA08D878D859E850197F1F79E878D8788E2D3
S1130DB011D081E00FD086E00DD08EE00BD080E81A
S1130DC009D02E960FB6F894DEBF0FBECDBFDF91CB
S1130DD0CF910895CF93DF93CDB7DEB76E970FB65B
S1130DE0F894DEBF0FBECDBF8E8F8E8D898389812F
S1130DF0807F898388E290E028E230E0F901208155
S1130E002F70FC01208388E290E028E230E0F901B1
S1130E1030812981232BFC01208388E290E028E2A1
S1130E2030E0F90120812E7FFC01208388E290E0EC
S1130E3028E230E0F90120812D7FFC01208388E243
S1130E4090E028E230E0F90120812460FC01208355
S1130E5080E090E0A0EAB0E48A839B83AC83BD8306
S1130E6026E636E646E655E46A817B818C819D81DF
S1130E700E946021DC01CB018E839F83A887B98700
S1130E8020E030E040E85FE36E817F8188859985CA
S1130E900E940D2088232CF481E090E09B878A87B0
S1130EA03FC020E03FEF4FE757E46E817F818885A4
S1130EB099850E945C2118164CF520E030E040E250
S1130EC051E46A817B818C819D810E946021DC01D7
S1130ED0CB01BC01CD010E947E20DC01CB019B87AC
S1130EE08A870FC080E791E09D878C878C859D85DC
S1130EF00197F1F79D878C878A859B8501979B874E
S1130F008A878A859B85009769F714C06E817F81E3
S1130F10888599850E947E20DC01CB019B878A8786
S1130F208A859B859F878E878E859F850197F1F79C
S1130F309F878E8788E290E028E230E0F9012081E3
S1130F402B7FFC0120838E8D8F708E8F8E8D8295EA
S1130F50807F8E8F88E290E028E230E0F9012081E2
S1130F602F70FC01208388E290E028E230E0F90150
S1130F7030812E8D232BFC01208388E290E028E22F
S1130F8030E0F90120812E7FFC01208388E290E08B
S1130F9028E230E0F90120812D7FFC01208388E2E2
S1130FA090E028E230E0F90120812460FC012083F4
S1130FB080E090E0A0EAB0E4888B998BAA8BBB8B8D
S1130FC026E636E646E655E4688979898A899B8966
S1130FD00E946021DC01CB018C8B9D8BAE8BBF8B7F
S1130FE020E030E040E85FE36C897D898E899F8949
S1130FF00E940D2088232CF481E090E0998F888F43
S11310003FC020E03FEF4FE757E46C897D898E892C
S11310109F890E945C2118164CF520E030E040E2E4
S113102051E4688979898A899B890E946021DC015D
S1131030CB01BC01CD010E947E20DC01CB01998F44
S1131040888F0FC080E791E09B8F8A8F8A8D9B8D5C
S11310500197F1F79B8F8A8F888D998D0197998FCE
S1131060888F888D998D009769F714C06C897D8964
S11310708E899F890E947E20DC01CB01998F888F05
S1131080888D998D9D8F8C8F8C8D9D8D0197F1F717
S11310909D8F8C8F88E290E028E230E0F901208176
S11310A02B7FFC0120836E960FB6F894DEBF0FBE33
S11310B0CDBFDF91CF910895CF93DF93CDB7DEB746
S11310C06E970FB6F894DEBF0FBECDBF8E8F8E8D98
S11310D089838981807F898388E290E028E230E0F7
S11310E0F90120812F70FC01208388E290E028E23E
S11310F030E0F90130812981232BFC01208388E22F
S113110090E028E230E0F90120812160FC01208395
S113111088E290E028E230E0F90120812D7FFC0193
S1131120208388E290E028E230E0F9012081246005
S1131130FC01208380E090E0A0EAB0E48A839B83F2
S1131140AC83BD8326E636E646E655E46A817B81B8
S11311508C819D810E946021DC01CB018E839F8361
S1131160A887B98720E030E040E85FE36E817F81A3
S1131170888599850E940D2088232CF481E090E0D5
S11311809B878A873FC020E03FEF4FE757E46E819B
S11311907F81888599850E945C2118164CF520E092
S11311A030E040E251E46A817B818C819D810E9420
S11311B06021DC01CB01BC01CD010E947E20DC0159
S11311C0CB019B878A870FC080E791E09D878C873E
S11311D08C859D850197F1F79D878C878A859B85F2
S11311E001979B878A878A859B85009769F714C036
S11311F06E817F81888599850E947E20DC01CB01E8
S11312009B878A878A859B859F878E878E859F8506
S11312100197F1F79F878E8788E290E028E230E01B
S1131220F90120812B7FFC0120838E8D8F708E8F9E
S11312308E8D8295807F8E8F88E290E028E230E068
S1131240F90120812F70FC01208388E290E028E2DC
S113125030E0F90130812E8D232BFC01208388E2BC
S113126090E028E230E0F90120812160FC01208334
S113127088E290E028E230E0F90120812D7FFC0132
S1131280208388E290E028E230E0F90120812460A4
S1131290FC01208380E090E0A0EAB0E4888B998B85
S11312A0AA8BBB8B26E636E646E655E4688979893F
S11312B08A899B890E946021DC01CB018C8B9D8BE8
S11312C0AE8BBF8B20E030E040E85FE36C897D8922
S11312D08E899F890E940D2088232CF481E090E060
S11312E0998F888F3FC020E03FEF4FE757E46C8928
S11312F07D898E899F890E945C2118164CF520E017
S113130030E040E251E4688979898A899B890E94A6
S11313106021DC01CB01BC01CD010E947E20DC01F7
S1131320CB01998F888F0FC080E791E09B8F8A8FC4
S11313308A8D9B8D0197F1F79B8F8A8F888D998D6C
S11313400197998F888F888D998D009769F714C0BC
S11313506C897D898E899F890E947E20DC01CB0166
S1131360998F888F888D998D9D8F8C8F8C8D9D8D75
S11313700197F1F79D8F8C8F88E290E028E230E0AE
S1131380F90120812B7FFC0120836E960FB6F8941F
S1131390DEBF0FBECDBFDF91CF910895CF93DF9312
S11313A0CDB7DEB780E816DDDF91CF910895CF93F6
S11313B0DF931F921F92CDB7DEB79A8389830AC049
S11313C089819A81FC01808177DE89819A810196E5
S11313D09A83898389819A81FC018081882381F79A
S11313E00F900F90DF91CF910895CF93DF931F92C9
S11313F01F92CDB7DEB789836A838981882F90E0F5
S11314008230910591F08330910524F48130910567
S113141041F017C08330910561F08430910569F083
S113142010C08A818158D6DC0CC08A818154D2DCF8
S113143008C08A818D56CEDC04C08A818D52CADCF4
S113144000000F900F90DF91CF910895CF93DF9319
S1131450CDB7DEB727970FB6F894DEBF0FBECDBF6A
S11314608A836B835D834C833F832E8319828A81B5
S1131470882319F08B81882311F490DF03C06B81DA
S11314808A81B3DF8E819F818530910519F089812E
S11314908130F9F48C819D81929582958F70892792
S11314A09F7089279C01A7E4B3E00E9428239695A6
S11314B087959695879596958795C09690932202E1
S11314C0809321028091210290912202F5DD81E036
S11314D089838E819F818430910521F089818130B7
S11314E009F03FC08C819D81969587959695879547
S11314F0969587959C01A5ECB0E20E9428239295CD
S113150082958F7089279F708927909325028093F5
S1131510240240912402509125029A01ADECBCECC6
S11315200E942823969587959695879596958795F5
S1131530880F991F9C01220F331F220F331F820F24
S1131540931F9A01281B390BC901C096909332024C
S1131550809331028091310290913202ADDD81E0BD
S113156089838E819F818330910519F0898181302F
S1131570C9F58C819D8196958795969587959C0153
S1131580ABE7B4E10E9428239695879590932502B2
S11315908093240240912402509125029A01ADECDB
S11315A0BCEC0E94282396958795969587959695E9
S11315B08795880F991F9C01220F331F220F331F19
S11315C0820F931F9A01281B390BC901C09690936F
S11315D02D0280932C0280912C0290912D026CDDBF
S11315E081E089838E819F818230910519F0898100
S11315F08130C9F58C819D819C01ADECBCEC0E94CD
S11316002823969587959695879596958795909393
S113161025028093240240912402509125029A01CC
S1131620ADECBCEC0E9428239695879596958795FA
S113163096958795880F991F9C01220F331F220FBF
S1131640331F820F931F9A01281B390BC901C096BF
S113165090932B0280932A0280912A0290912B026C
S11316602BDD81E089838E819F818130910519F082
S11316708981813021F54C815D819A01ADECBCEC0E
S11316800E94282396958795969587959695879594
S1131690880F991F9C01220F331F220F331F820FC3
S11316A0931F9A01281B390BC901C09690933002ED
S11316B080932F0280912F0290913002FDDC8E8165
S11316C09F818630910514F085E4F6DC27960FB6E9
S11316D0F894DEBF0FBECDBFDF91CF910895CF93B5
S11316E0DF93CDB7DEB787E290E027E230E0F9017F
S11316F020812860FC01208388E290E028E230E029
S1131700F9012081277FFC012083DF91CF91089587
S1131710CF93DF93CDB7DEB7E2DFDF91CF910895AA
S1131720CF93DF93CDB7DEB7F894F2DF7894DF91EF
S1131730CF910895CF93DF93CDB7DEB787E290E0E2
S113174027E230E0F9012081276FFC01208388E241
S113175090E028E230E0F90120812078FC01208328
S1131760DF91CF910895CF93DF93CDB7DEB780E3B8
S113177090E0FC01108281E390E0FC01108287E09C
S113178091E0FC01108288E091E0FC011082DF917D
S1131790CF910895CF93DF93CDB7DEB7CBDFE3DFEF
S11317A05CD386D39ED3DF91CF910895CF93DF93FB
S11317B0CDB7DEB78AE790E0FC0110828BE790E0BA
S11317C0FC0110828CE790E020E2FC01208380E59C
S11317D090E020E8FC0120838AE790E026E8FC0101
S11317E02083DF91CF910895CF93DF931F921F92AF
S11317F0CDB7DEB78A838A81883028F08BE790E002
S113180028E0FC0120838A8187708A838CE790E03A
S11318102A812062FC0120838AE790E02AE730E0F5
S1131820F90120812064FC01208300008AE790E014
S1131830FC018081882F90E0807199270097B1F393
S113184089E790E0FC01808189838AE790E02AE7B8
S113185030E0F90120812061FC0120838BE790E0D6
S1131860FC01108289810F900F90DF91CF91089530
S1131870CF93DF93CDB7DEB727970FB6F894DEBFCB
S11318800FBECDBF8F838F81882F90E0A0E0B0E0A2
S1131890BC01CD010E94AA20DC01CB012FEE39EC62
S11318A043E95FE3BC01CD010E94C321DC01CB010C
S11318B09C01AD0160E070E080E89FE30E9411208C
S11318C0DC01CB012AE939EF4EE255E4BC01CD013C
S11318D00E946021DC01CB0120E030E040E251E4D1
S11318E0BC01CD010E946021DC01CB01BC01CD0112
S11318F00E947920DC01CB01AA2797FDA095BA2F7D
S1131900BC01CD010E94AC20DC01CB018B839C8304
S1131910AD83BE836B817C818D819E810E94792001
S1131920DC01CB019A83898389819A81813223E006
S1131930920720F080E293E09A83898389819A81D7
S113194027960FB6F894DEBF0FBECDBFDF91CF91BF
S11319500895CF93DF93CDB7DEB7F8941BDF26DF6E
S1131960AAD941D0D7D2F1D27894DF91CF910895FA
S1131970CF93DF93CDB7DEB784E290E024E230E08A
S1131980F90120812062FC01208385E290E025E2B8
S113199030E0F90120812062FC012083DF91CF91A6
S11319A00895CF93DF93CDB7DEB784E290E024E2CD
S11319B030E0F90120812064FC01208385E290E07D
S11319C025E230E0F90120812064FC012083DF91CD
S11319D0CF910895CF93DF93CDB7DEB7C9DFE1DFB1
S11319E0DF91CF910895CF93DF93CDB7DEB781E236
S11319F091E0FC01108285E291E02FEFFC0120834D
S1131A0084E291E021E0FC01208389E291E0FC0181
S1131A10108288E291E02FEFFC0120838BE291E0B9
S1131A20FC0110828AE291E02FEFFC0120838DE219
S1131A3091E0FC0110828CE291E02FEFFC01208305
S1131A4080E291E029EAFC01208381E291E02BE02D
S1131A50FC012083DF91CF910895CF93DF931F92F0
S1131A601F92CDB7DEB789836A8388E291E029812A
S1131A70FC0120838AE291E02A81FC0120830F90FB
S1131A800F90DF91CF910895CF93DF93CDB7DEB759
S1131A9081E890E0FC01108285E890E02CEFFC01E5
S1131AA0208384E890E021E0FC01208389E890E031
S1131AB023E0FC01208388E890E02FEFFC012083E1
S1131AC08BE890E023E0FC0120838AE890E02FEF8C
S1131AD0FC0120838DE890E023E0FC0120838CE866
S1131AE090E02FEFFC01208387E890E023E0FC01E5
S1131AF0208386E890E02FEFFC01208380E890E0CB
S1131B002BEAFC01208382E890E0FC01108281E84A
S1131B1090E02CE0FC012083DF91CF910895CF93D6
S1131B20DF93CDB7DEB7F89455DFAEDF7894DF915D
S1131B30CF9108950F931F93CF93DF9300D01F92FB
S1131B401F92CDB7DEB78D8319821A821B821C8245
S1131B508D81882F90E0A0E0B0E0BC01CD010E940F
S1131B60AA20DC01CB012BE734E14EEE5FE3BC019C
S1131B70CD010E941120DC01CB0120E030E04CE0DB
S1131B8052E4BC01CD010E94A91FDC01CB01898371
S1131B909A83AB83BC8389E890E0FC01108208E857
S1131BA010E069817A818B819C810E947E20DC0116
S1131BB0CB01F80180830F900F900F900F900F903E
S1131BC0DF91CF911F910F9108950F931F93CF939E
S1131BD0DF9300D01F921F92CDB7DEB78D83198299
S1131BE01A821B821C828D81882F90E0A0E0B0E0D5
S1131BF0BC01CD010E94AA20DC01CB012BE734E11A
S1131C004EEE5FE3BC01CD010E941120DC01CB014B
S1131C1020E030E04CE052E4BC01CD010E94A91F59
S1131C20DC01CB0189839A83AB83BC838BE890E08E
S1131C30FC0110820AE810E069817A818B819C8121
S1131C400E947E20DC01CB01F80180830F900F906D
S1131C500F900F900F90DF91CF911F910F910895E6
S1131C60CF93DF93CDB7DEB76C970FB6F894DEBF92
S1131C700FBECDBF80E05EDF80E090E8A2EAB4E46E
S1131C8089839A83AB83BC8326E636E646E655E42D
S1131C9069817A818B819C810E946021DC01CB0166
S1131CA08D839E83AF83B88720E030E040E85FE314
S1131CB06D817E818F8198850E940D2088232CF46C
S1131CC081E090E09A8789873FC020E03FEF4FE7AB
S1131CD057E46D817E818F8198850E945C2118165E
S1131CE04CF520E030E040E251E469817A818B8157
S1131CF09C810E946021DC01CB01BC01CD010E94CA
S1131D007E20DC01CB019A8789870FC080E791E0B0
S1131D109C878B878B859C850197F1F79C878B87A4
S1131D2089859A8501979A87898789859A850097F5
S1131D3069F714C06D817E818F8198850E947E2011
S1131D40DC01CB019A87898789859A859E878D874F
S1131D508D859E850197F1F79E878D8780E535DF18
S1131D6080E090E8A2EAB4E48F87988BA98BBA8BC1
S1131D7026E636E646E655E46F85788989899A89A8
S1131D800E946021DC01CB018B8B9C8BAD8BBE8BC5
S1131D9020E030E040E85FE36B897C898D899E898F
S1131DA00E940D2088232CF481E090E0988F8F8B83
S1131DB03FC020E03FEF4FE757E46B897C898D8972
S1131DC09E890E945C2118164CF520E030E040E228
S1131DD051E46F85788989899A890E946021DC01A0
S1131DE0CB01BC01CD010E947E20DC01CB01988F88
S1131DF08F8B0FC080E791E09A8F898F898D9A8DA0
S1131E000197F1F79A8F898F8F89988D0197988F11
S1131E108F8B8F89988D009769F714C06B897C89A3
S1131E208D899E890E947E20DC01CB01988F8F8B47
S1131E308F89988D9C8F8B8F8B8D9C8D0197F1F75B
S1131E409C8F8B8F8AE576DE6C960FB6F894DEBF96
S1131E500FBECDBFDF91CF910895CF93DF93CDB760
S1131E60DEB781E290E021E230E0F90120812F60C9
S1131E70FC01208382E290E022E230E0F90120813B
S1131E80207FFC0120838AE091E02AE031E0F9011F
S1131E9020812861FC0120838BE091E02BE031E07C
S1131EA0F90120812861FC012083DF91CF910895FD
S1131EB0CF93DF93CDB7DEB78DE290E02DE230E033
S1131EC0F90120812F7EFC0120838EE290E02EE236
S1131ED030E0F90120812061FC012083DF91CF9162
S1131EE00895CF93DF93CDB7DEB78DE290E02DE276
S1131EF030E0F90120812F7DFC0120838EE290E007
S1131F002EE230E0F90120812062FC012083DF9180
S1131F10CF910895CF93DF93CDB7DEB7F8948AE6D7
S1131F2090E02AE630E0F90120812260FC01208360
S1131F308DE390E02DE330E0F90120812061FC0184
S1131F4020837894DF91CF910895CF93DF93CDB719
S1131F50DEB7F8948AE690E02AE630E0F9012081C1
S1131F602860FC0120838DE390E02DE330E0F9014B
S1131F7020812062FC0120837894DF91CF91089521
S1131F801F920F9200905F000F9211248F939F93E2
S1131F90AF93BF93CF93DF93CDB7DEB78091180291
S1131FA090911902A0911A02B0911B020196A11DF1
S1131FB0B11D8093180290931902A0931A02B09352
S1131FC01B02DF91CF91BF91AF919F918F910F90A1
S1131FD000925F000F901F9018951F920F9200902F
S1131FE05F000F9211248F939F93AF93BF93CF936E
S1131FF0DF93CDB7DEB78091140290911502A091C2
S11320001602B09117020196A11DB11D809314020E
S113201090931502A0931602B0931702DF91CF910B
S1132020BF91AF919F918F910F9000925F000F909D
S11320301F901895CF93DF931F921F92CDB7DEB7F1
S11320408A8319828A818F708A8382E290E0FC01FC
S1132050808189838981807F898399818A81892B81
S1132060898382E290E02981FC0120830F900F9004
S1132070DF91CF910895CF93DF93CDB7DEB786E09C
S1132080D9DFDF91CF910895CF93DF93CDB7DEB73A
S113209089E0D0DFDF91CF910895CF93DF93CDB75F
S11320A0DEB785E0C7DFDF91CF910895CF93DF934B
S11320B0CDB7DEB78AE0BEDFDF91CF910895CF932D
S11320C0DF93CDB7DEB780E0B5DFDF91CF91089520
S11320D0CF93DF93CDB7DEB72A970FB6F894DEBF60
S11320E00FBECDBF9A87898719821A821B821C82F0
S11320F01D821E821F82188689859A85CC01A0E0E4
S1132100B0E0BC01CD010E94AA20DC01CB012BEC84
S113211031EA45E45EE3BC01CD010E941120DC01FB
S1132120CB0189839A83AB83BC8369817A818B8158
S11321309C810E947E20DC01CB01CC01A0E0B0E0B8
S11321408D839E83AF83B887109218021092190270
S113215010921A0210921B0210921402109215028D
S1132160109216021092170220911802309119024F
S113217040911A0250911B0271E08D819E81AF81C2
S1132180B885281739074A075B0708F470E02091DF
S1132190140230911502409116025091170261E029
S11321A08D819E81AF81B885281739074A075B075F
S11321B008F460E0872F862B882309F001C0D4CF70
S11321C07EDF2A960FB6F894DEBF0FBECDBFDF9137
S11321D0CF910895CF93DF93CDB7DEB72A970FB68B
S11321E0F894DEBF0FBECDBF9A87898719821A8201
S11321F01B821C821D821E821F82188689859A85F5
S1132200CC01A0E0B0E0BC01CD010E94AA20DC0119
S1132210CB0123E333E343E35EE3BC01CD010E943E
S11322201120DC01CB0189839A83AB83BC83698150
S11322307A818B819C810E947E20DC01CB018D837D
S11322409E83AF83B88710921802109219021092DD
S11322501A0210921B022091180230911902409127
S11322601A0250911B028D819E81AF81B88582171D
S11322709307A407B50708F401C0EDCF20DF2A9621
S11322800FB6F894DEBF0FBECDBFDF91CF91089596
S1132290CF93DF931F921F92CDB7DEB79A838983C2
S11322A0EADE89819A8196DF0F900F90DF91CF91BA
S11322B00895CF93DF931F921F92CDB7DEB79A8311
S11322C08983EBDE89819A8103DF0F900F90DF9180
S11322D0CF910895CF93DF931F921F92CDB7DEB7AE
S11322E09A838983E3DE89819A81F2DE0F900F90CD
S11322F0DF91CF910895CF93DF93CDB7DEB72E97BB
S11323000FB6F894DEBF0FBECDBF23DB09DA0E94FF
S1132310D50005DC63E081E068D886E092E047D828
S113232080E090E8ABE3B5E489839A83AB83BC8314
S113233026E636E646E655E469817A818B819C81FE
S11323400E946021DC01CB018D839E83AF83B8871B
S113235020E030E040E85FE36D817E818F819885E5
S11323600E940D2088232CF481E090E09A878987CD
S11323703FC020E03FEF4FE757E46D817E818F81BE
S113238098850E945C2118164CF520E030E040E26C
S113239051E469817A818B819C810E946021DC01F6
S11323A0CB01BC01CD010E947E20DC01CB019A87C8
S11323B089870FC080E791E09C878B878B859C85FC
S11323C00197F1F79C878B8789859A8501979A876E
S11323D0898789859A85009769F714C06D817E8104
S11323E08F8198850E947E20DC01CB019A878987A2
S11323F089859A859E878D878D859E850197F1F7BE
S11324009E878D870BD080E090E02E960FB6F894CF
S1132410DEBF0FBECDBFDF91CF9108950F931F9301
S1132420CF93DF93CDB7DEB7C45CD1090FB6F89470
S1132430DEBF0FBECDBF81E090E09A83898381E047
S113244090E09C838B833BDE80E090E0A8ECB2E4D8
S11324508D8F9E8FAF8FB8A326E636E646E655E409
S11324606D8D7E8D8F8D98A10E946021DC01CB0142
S113247089A39AA3ABA3BCA320E030E040E85FE3C8
S113248069A17AA18BA19CA10E940D2088232CF420
S113249081E090E09EA38DA33FC020E03FEF4FE793
S11324A057E469A17AA18BA19CA10E945C21181612
S11324B04CF520E030E040E251E46D8D7E8D8F8D4F
S11324C098A10E946021DC01CB01BC01CD010E94D6
S11324D07E20DC01CB019EA38DA30FC080E791E099
S11324E098A78FA38FA198A50197F1F798A78FA319
S11324F08DA19EA101979EA38DA38DA19EA100975E
S113250069F714C069A17AA18BA19CA10E947E20C5
S1132510DC01CB019EA38DA38DA19EA19AA789A7BF
S113252089A59AA50197F1F79AA789A70E94761E13
S1132530BDDD80E090E0A0EFB1E48BA79CA7ADA740
S1132540BEA726E636E646E655E46BA57CA58DA532
S11325509EA50E946021DC01CB018FA798ABA9AB9B
S1132560BAAB20E030E040E85FE36FA578A989A921
S11325709AA90E940D2088232CF481E090E09CAB62
S11325808BAB3FC020E03FEF4FE757E46FA578A93E
S113259089A99AA90E945C2118164CF520E030E024
S11325A040E251E46BA57CA58DA59EA50E94602107
S11325B0DC01CB01BC01CD010E947E20DC01CB01FA
S11325C09CAB8BAB0FC080E791E09EAB8DAB8DA92C
S11325D09EA90197F1F79EAB8DAB8BA99CA901979E
S11325E09CAB8BAB8BA99CA9009769F714C06FA512
S11325F078A989A99AA90E947E20DC01CB019CAB11
S11326008BAB8BA99CA998AF8FAB8FA998AD019781
S1132610F1F798AF8FAB53DD80E090E0AAE7B4E424
S113262089AF9AAFABAFBCAF26E636E646E655E4D3
S113263069AD7AAD8BAD9CAD0E946021DC01CB010C
S11326409E01235C3F4FF90180839183A283B3836E
S113265020E030E040E85FE3CE01CD96FC016081EC
S11326607181828193810E940D2088234CF4CE01D4
S11326708F5B9F4F21E030E0FC013183208368C0F1
S113268020E03FEF4FE757E4CE01CD96FC01608197
S11326907181828193810E945C2118160CF047C0DD
S11326A020E030E040E251E469AD7AAD8BAD9CAD01
S11326B00E946021DC01CB018E010F5B1F4FBC0126
S11326C0CD010E947E20DC01CB01F801918380833F
S11326D024C0CE018D5B9F4F20E731E0FC013183A4
S11326E02083CE018D5B9F4FFC01808191810197F6
S11326F0F1F79E012D5B3F4FF90191838083CE0159
S11327008F5B9F4F9E012F5B3F4FF90120813181E9
S113271021503109FC0131832083CE018F5B9F4F0F
S1132720FC01808191810097A1F60C94111C8E010B
S11327300F5B1F4FCE01CD96FC01608171818281B8
S113274093810E947E20DC01CB01F8019183808378
S1132750CE018B5B9F4F9E012F5B3F4FF901208180
S11327603181FC0131832083CE018B5B9F4FFC01BF
S1132770808191810197F1F79E012B5B3F4FF90115
S1132780918380830C94111C81E02ED8882F90E0D3
S11327909E838D8383E028D8882F90E098878F8349
S11327A082E022D8882F90E09A87898789E01CD814
S11327B080931C0280911C025BD890930102809349
S11327C00002809100029091010223E030E0AC010C
S11327D06EE082E00E94260A80910002909101023C
S11327E08039F1E09F0708F0B5C381E00E94F40B43
S11327F0882F90E09C878B8783E00E94F40B882FBE
S113280090E09E878D8782E00E94F40B882F90E0F1
S1132810988B8F870E94B41C89E00E94F40B8093EC
S11328201C0280911C0224D8909301028093000220
S1132830809100029091010223E030E0AC016EE04F
S113284082E00E94260A809100029091010285365E
S1132850910528F06AE58AE500D90DDC7AC38091F8
S11328600002909101028B35910508F465C38091B3
S11328700002909101028336910508F05DC360E087
S113288080E0EBD81CDC9E01295B3F4F80E090E0A8
S1132890AAE7B4E4F90180839183A283B3838E0110
S11328A0055B1F4FCE01895B9F4F26E636E646E661
S11328B055E4FC0160817181828193810E946021D1
S11328C0DC01CB01F80180839183A283B383CE0121
S11328D0855B9F4F20E030E040E85FE3FC016081CE
S11328E07181828193810E940D2088234CF4CE0152
S11328F0815B9F4F21E030E0FC01318320836DC078
S1132900CE01855B9F4F20E03FEF4FE757E4FC018A
S113291060817181828193810E945C2118160CF080
S11329204AC0CE01895B9F4F20E030E040E251E491
S1132930FC0160817181828193810E946021DC01AC
S1132940CB018E01015B1F4FBC01CD010E947E2093
S1132950DC01CB01F8019183808324C0CE018F5A1E
S11329609F4F20E731E0FC0131832083CE018F5A51
S11329709F4FFC01808191810197F1F79E012F5AAD
S11329803F4FF90191838083CE01815B9F4F9E016C
S1132990215B3F4FF9012081318121503109FC0134
S11329A031832083CE01815B9F4FFC018081918123
S11329B00097A1F62CC08E01015B1F4FCE01855BF1
S11329C09F4FFC0160817181828193810E947E20EE
S11329D0DC01CB01F80191838083CE018D5A9F4F96
S11329E09E01215B3F4FF90120813181FC0131833C
S11329F02083CE018D5A9F4FFC01808191810197E4
S1132A00F1F79E012D5A3F4FF9019183808328D914
S1132A109E012B5A3F4F80E090E0AAE7B4E4F9010D
S1132A2080839183A283B3838E01075A1F4FCE0103
S1132A308B5A9F4F26E636E646E655E4FC01608154
S1132A407181828193810E946021DC01CB01F801B4
S1132A5080839183A283B383CE01875A9F4F20E062
S1132A6030E040E85FE3FC01608171818281938101
S1132A700E940D2088234CF4CE01835A9F4F21E0FD
S1132A8030E0FC01318320836DC0CE01875A9F4F13
S1132A9020E03FEF4FE757E4FC01608171818281C0
S1132AA093810E945C2118160CF04AC0CE018B5A07
S1132AB09F4F20E030E040E251E4FC0160817181ED
S1132AC0828193810E946021DC01CB018E01035A33
S1132AD01F4FBC01CD010E947E20DC01CB01F80117
S1132AE09183808324C0CE01815A9F4F20E731E037
S1132AF0FC0131832083CE01815A9F4FFC018081E8
S1132B0091810197F1F79E01215A3F4FF901918379
S1132B108083CE01835A9F4F9E01235A3F4FF90170
S1132B202081318121503109FC0131832083CE0180
S1132B30835A9F4FFC01808191810097A1F62CC09C
S1132B408E01035A1F4FCE01875A9F4FFC016081AB
S1132B507181828193810E947E20DC01CB01F80186
S1132B6091838083CE018F599F4F9E01235A3F4FFB
S1132B70F90120813181FC0131832083CE018F59F9
S1132B809F4FFC01808191810197F1F79E012F599C
S1132B903F4FF9019183808392DA9E012D593F4F73
S1132BA080E090E0AAE7B4E4F90180839183A283F2
S1132BB0B3838E0109591F4FCE018D599F4F26E6CD
S1132BC036E646E655E4FC01608171818281938199
S1132BD00E946021DC01CB01F80180839183A283F0
S1132BE0B383CE0189599F4F20E030E040E85FE392
S1132BF0FC0160817181828193810E940D20882370
S1132C004CF4CE0185599F4F21E030E0FC01318323
S1132C1020836DC0CE0189599F4F20E03FEF4FE7DD
S1132C2057E4FC0160817181828193810E945C215F
S1132C3018160CF04AC0CE018D599F4F20E030E0A9
S1132C4040E251E4FC0160817181828193810E94A0
S1132C506021DC01CB018E0105591F4FBC01CD0160
S1132C600E947E20DC01CB01F8019183808324C083
S1132C70CE0183599F4F20E731E0FC01318320834B
S1132C80CE0183599F4FFC01808191810197F1F717
S1132C909E0123593F4FF90191838083CE018559C9
S1132CA09F4F9E0125593F4FF901208131812150C9
S1132CB03109FC0131832083CE0185599F4FFC01EA
S1132CC0808191810097A1F62CC08E0105591F4F78
S1132CD0CE0189599F4FFC0160817181828193816A
S1132CE00E947E20DC01CB01F80191838083CE0118
S1132CF081599F4F9E0125593F4FF9012081318110
S1132D00FC0131832083CE0181599F4FFC018081D6
S1132D1091810197F1F79E0121593F4FF901918368
S1132D20808381E00E94F40B882F90E09A8B898B3A
S1132D3083E00E94F40B882F90E09C8B8B8B82E0C5
S1132D400E94F40B882F90E09E8B8D8B7DD5809113
S1132D500202909103029C0189899A8928173907F4
S1132D6008F0E9C080910402909105029C018D89CC
S1132D709E892817390708F0DEC0809102029091DD
S1132D8003029C018B899C892817390708F0D3C05A
S1132D906CE88CE80E942D0D8EE190E079DA74D60F
S1132DA08ED99E012F583F4F80E090E0AAEFB3E404
S1132DB0F90180839183A283B3838E010B581F4F43
S1132DC0CE018F589F4F26E636E646E655E4FC01D1
S1132DD060817181828193810E946021DC01CB0139
S1132DE0F80180839183A283B383CE018B589F4FD4
S1132DF020E030E040E85FE3FC0160817181828182
S1132E0093810E940D2088234CF4CE0187589F4F54
S1132E1021E030E0FC01318320836DC0CE018B586A
S1132E209F4F20E03FEF4FE757E4FC016081718141
S1132E30828193810E945C2118160CF04AC0CE0155
S1132E408F589F4F20E030E040E251E4FC01608164
S1132E507181828193810E946021DC01CB018E010A
S1132E6007581F4FBC01CD010E947E20DC01CB011D
S1132E70F8019183808324C0CE0185589F4F20E7B9
S1132E8031E0FC0131832083CE0185589F4FFC0142
S1132E90808191810197F1F79E0125583F4FF901F7
S1132EA091838083CE0187589F4F9E0127583F4FBF
S1132EB0F9012081318121503109FC0131832083C2
S1132EC0CE0187589F4FFC01808191810097A1F624
S1132ED02CC08E0107581F4FCE018B589F4FFC0109
S1132EE060817181828193810E947E20DC01CB010B
S1132EF0F80191838083CE0183589F4F9E01275808
S1132F003F4FF90120813181FC0131832083CE01BF
S1132F1083589F4FFC01808191810197F1F79E01B5
S1132F2023583F4FF9019183808382E090E09A8394
S1132F30898300000EC0F5CE8091000290910102B9
S1132F408935910530F46AE58AE50E942D0D9CD8F7
S1132F5068C467C46CE88CE80E942D0D82ED90E093
S1132F60B9D98FE090E0A5D9AAD89E0121583F4F46
S1132F7080E090E0AAEFB3E4F90180839183A28317
S1132F80B3838E010D571F4FCE0181589F4F26E604
S1132F9036E646E655E4FC016081718182819381C5
S1132FA00E946021DC01CB01F80180839183A2831C
S1132FB0B383CE018D579F4F20E030E040E85FE3BC
S1132FC0FC0160817181828193810E940D2088239C
S1132FD04CF4CE0189579F4F21E030E0FC0131834E
S1132FE020836DC0CE018D579F4F20E03FEF4FE708
S1132FF057E4FC0160817181828193810E945C218C
S113300018160CF04AC0CE0181589F4F20E030E0E2
S113301040E251E4FC0160817181828193810E94CC
S11330206021DC01CB018E0109571F4FBC01CD018A
S11330300E947E20DC01CB01F8019183808324C0AF
S1133040CE0187579F4F20E731E0FC013183208375
S1133050CE0187579F4FFC01808191810197F1F741
S11330609E0127573F4FF90191838083CE018957F1
S11330709F4F9E0129573F4FF901208131812150F3
S11330803109FC0131832083CE0189579F4FFC0114
S1133090808191810097A1F6BEC38E0109571F4F0D
S11330A0CE018D579F4FFC01608171818281938194
S11330B00E947E20DC01CB01F80191838083CE0144
S11330C085579F4F9E0129573F4FF9012081318138
S11330D0FC0131832083CE0185579F4FFC01808101
S11330E091810197F1F79E0125573F4FF901918393
S11330F0808391C389E00E94F40B80931C02809129
S11331001C020E94380C909301028093000280916B
S113311000029091010223E030E0AC016EE082E015
S11331200E94260A80910002909101028536910541
S113313038F06AE58AE50E942D0D0E943B106BC3AE
S113314080910002909101028B35910508F456C3D9
S113315080910002909101028336910508F04EC3DC
S11331600E945F109E0123573F4F80E090E0AAE742
S1133170B4E4F90180839183A283B3838E010F5653
S11331801F4FCE0183579F4F26E636E646E655E4A9
S1133190FC0160817181828193810E946021DC0144
S11331A0CB01F80180839183A283B383CE018F5630
S11331B09F4F20E030E040E85FE3FC0160817181D3
S11331C0828193812AD788234CF4CE018B569F4F5A
S11331D021E030E0FC01318320836BC0CE018F56A7
S11331E09F4F20E03FEF4FE757E4FC01608171817E
S11331F0828193810E945C2118160CF049C0CE0193
S113320083579F4F20E030E040E251E4FC016081AD
S11332107181828193810E946021DC01CB018E0146
S11332200B561F4FBC01CD0169D7DC01CB01F8015E
S11332309183808324C0CE0189569F4F20E731E0DB
S1133240FC0131832083CE0189569F4FFC0180818C
S113325091810197F1F79E0129563F4FF90191831E
S11332608083CE018B569F4F9E012B563F4FF90111
S11332702081318121503109FC0131832083CE0129
S11332808B569F4FFC01808191810097A1F62BC042
S11332908E010B561F4FCE018F569F4FFC0160814C
S11332A07181828193812AD7DC01CB01F80191835A
S11332B08083CE0187569F4F9E012B563F4FF901C5
S11332C020813181FC0131832083CE0187569F4FB9
S11332D0FC01808191810197F1F79E0127563F4FB0
S11332E0F901918380830E94300E9E0125563F4F41
S11332F080E090E0AAE7B4E4F90180839183A2839B
S1133300B3838E0101561F4FCE0185569F4F26E68B
S113331036E646E655E4FC01608171818281938141
S1133320CFD7DC01CB01F80180839183A283B383DF
S1133330CE0181569F4F20E030E040E85FE3FC017E
S1133340608171818281938168D688234CF4CE0197
S11333508D559F4F21E030E0FC013183208369C00B
S1133360CE0181569F4F20E03FEF4FE757E4FC0129
S113337060817181828193819FD718160CF048C0B7
S1133380CE0185569F4F20E030E040E251E4FC013D
S1133390608171818281938193D7DC01CB018E019D
S11333A00D551F4FBC01CD01A9D6DC01CB01F8019D
S11333B09183808324C0CE018B559F4F20E731E059
S11333C0FC0131832083CE018B559F4FFC0180810A
S11333D091810197F1F79E012B553F4FF90191839C
S11333E08083CE018D559F4F9E012D553F4FF9018E
S11333F02081318121503109FC0131832083CE01A8
S11334008D559F4FFC01808191810097A1F62BC0BF
S11334108E010D551F4FCE0181569F4FFC016081D7
S11334207181828193816AD6DC01CB01F801918399
S11334308083CE0189559F4F9E012D553F4FF90141
S113344020813181FC0131832083CE0189559F4F36
S1133450FC01808191810197F1F79E0129553F4F2D
S1133460F901918380830E945F109E0127553F4F8D
S113347080E090E0AAE7B4E4F90180839183A28319
S1133480B3838E0103551F4FCE0187559F4F26E608
S113349036E646E655E4FC016081718182819381C0
S11334A00FD7DC01CB01F80180839183A283B3831E
S11334B0CE0183559F4F20E030E040E85FE3FC01FC
S11334C06081718182819381A8D588234CF4CE01D7
S11334D08F549F4F21E030E0FC013183208369C089
S11334E0CE0183559F4F20E03FEF4FE757E4FC01A7
S11334F06081718182819381DFD618160CF048C0F7
S1133500CE0187559F4F20E030E040E251E4FC01BA
S11335106081718182819381D3D6DC01CB018E01DC
S11335200F541F4FBC01CD01E9D5DC01CB01F801DB
S11335309183808324C0CE018D549F4F20E731E0D6
S1133540FC0131832083CE018D549F4FFC01808187
S113355091810197F1F79E012D543F4FF901918319
S11335608083CE018F549F4F9E012F543F4FF9010A
S11335702081318121503109FC0131832083CE0126
S11335808F549F4FFC01808191810097A1F62BC03D
S11335908E010F541F4FCE0183559F4FFC01608154
S11335A0718182819381AAD5DC01CB01F8019183D9
S11335B08083CE018B549F4F9E012F543F4FF901BE
S11335C020813181FC0131832083CE018B549F4FB4
S11335D0FC01808191810197F1F79E012B543F4FAB
S11335E0F9019183808381E00E94F40B882F90E09D
S11335F0988F8F8B83E00E94F40B882F90E09A8F32
S1133600898F82E00E94F40B882F90E09C8F8B8F2F
S11336101BD180910202909103029C018F89988DA5
S11336202817390708F0E9C0809104029091050237
S11336309C018B8D9C8D2817390708F0DEC0809182
S11336400202909103029C01898D9A8D28173907F3
S113365008F0D3C06CE88CE80E942D0D8EE190E058
S11336600E94481143D30E945F109E0129543F4F8A
S113367080E090E0AAEFB3E4F90180839183A28310
S1133680B3838E0105541F4FCE0189549F4F26E604
S113369036E646E655E4FC016081718182819381BE
S11336A00FD6DC01CB01F80180839183A283B3831D
S11336B0CE0185549F4F20E030E040E85FE3FC01F9
S11336C06081718182819381A8D488234CF4CE01D6
S11336D081549F4F21E030E0FC013183208369C095
S11336E0CE0185549F4F20E03FEF4FE757E4FC01A4
S11336F06081718182819381DFD518160CF048C0F6
S1133700CE0189549F4F20E030E040E251E4FC01B7
S11337106081718182819381D3D5DC01CB018E01DB
S113372001541F4FBC01CD01E9D4DC01CB01F801E8
S11337309183808324C0CE018F539F4F20E731E0D3
S1133740FC0131832083CE018F539F4FFC01808184
S113375091810197F1F79E012F533F4FF901918316
S11337608083CE0181549F4F9E0121543F4FF90124
S11337702081318121503109FC0131832083CE0124
S113378081549F4FFC01808191810097A1F62BC049
S11337908E0101541F4FCE0185549F4FFC0160815F
S11337A0718182819381AAD4DC01CB01F8019183D8
S11337B08083CE018D539F4F9E0121543F4FF901C9
S11337C020813181FC0131832083CE018D539F4FB1
S11337D0FC01808191810197F1F79E012D533F4FA8
S11337E0F9019183808382E090E09C838B8382E063
S11337F090E09A83898300000EC0F5CE8091000288
S1133800909101028935910530F46AE58AE50E94B8
S11338102D0D0E9444108B819C818130910509F407
S113382069CC89819A818130910511F40C94C41377
S1133830CC53DF4F0FB6F894DEBF0FBECDBFDF9180
S1133840CF911F910F910895CF93DF9300D000D0B3
S1133850CDB7DEB781E00E94F40B882F90E09A8305
S1133860898383E00E94F40B882F90E09C838B83F0
S113387082E00E94F40B882F90E09E838D838091D8
S11338800202909103029C0189819A818217930715
S1133890D0F480910402909105029C018D819E8157
S11338A02817390780F480910202909103029C0149
S11338B08B819C818217930730F46EEB8EEB0E9410
S11338C02D0D0E94441080910202909103029C01EC
S11338D089819A8182179307D0F480910402909190
S11338E005029C018D819E818217930780F480914B
S11338F00202909103029C018B819C812817390755
S113390030F464E684E60E942D0D0E9456108091E6
S11339100202909103029C0189819A812817390738
S1133920D0F480910402909105029C018D819E81C6
S11339308217930780F480910202909103029C0104
S11339408B819C818217930730F464E684E60E949D
S11339502D0D0E944D1026960FB6F894DEBF0FBEB3
S1133960CDBFDF91CF910895CF93DF9300D000D0E6
S1133970CDB7DEB781E00E94F40B882F90E09A83E4
S1133980898383E00E94F40B882F90E09C838B83CF
S113399082E00E94F40B882F90E09E838D838091B7
S11339A00202909103029C0189819A8182179307F4
S11339B0D0F480910402909105029C018D819E8136
S11339C02817390780F480910202909103029C0128
S11339D08B819C818217930730F46EE68EE60E94F9
S11339E02D0D0E943B1080910202909103029C01D4
S11339F089819A8182179307D0F48091040290916F
S1133A0005029C018D819E818217930780F4809129
S1133A100202909103029C018B819C812817390733
S1133A2030F46AE58AE50E942D0D0E9456108091BB
S1133A300202909103029C0189819A812817390717
S1133A40D0F480910402909105029C018D819E81A5
S1133A508217930780F480910202909103029C01E3
S1133A608B819C818217930730F46AE58AE50E9472
S1133A702D0D0E944D1026960FB6F894DEBF0FBE92
S1133A80CDBFDF91CF910895CF93DF93CDB7DEB74C
S1133A90A4970FB6F894DEBF0FBECDBF89E190E0C6
S1133AA00E9448110E94561080E090E0A8E4B3E41C
S1133AB089879A87AB87BC8726E636E646E655E4CF
S1133AC069857A858B859C85FBD3DC01CB018D8749
S1133AD09E87AF87B88B20E030E040E85FE36D85D8
S1133AE07E858F85988999D288232CF481E090E093
S1133AF09A8B898B3BC020E03FEF4FE757E46D85FD
S1133B007E858F859889D8D318163CF520E030E05F
S1133B1040E251E469857A858B859C85D1D3DC01AB
S1133B20CB01BC01CD01EAD2DC01CB019A8B898B9C
S1133B300FC080E791E09C8B8B8B8B899C890197CC
S1133B40F1F79C8B8B8B89899A8901979A8B898B46
S1133B5089899A89009769F713C06D857E858F8559
S1133B609889CCD2DC01CB019A8B898B89899A897B
S1133B709E8B8D8B8D899E890197F1F79E8B8D8B02
S1133B8081E090E09A838983A2C081E00E94F40BD3
S1133B90882F90E09C838B8383E00E94F40B882F12
S1133BA090E09E838D8382E00E94F40B882F90E046
S1133BB098878F8380910402909105029C018B81E8
S1133BC09C818217930738F464E684E60E942D0DE5
S1133BD00E9456107CC00E945F1061E181E00E9447
S1133BE0F5098FE092E00E94D70980E090E0AAE70F
S1133BF0B4E48F8B988FA98FBA8F26E636E646E613
S1133C0055E46F89788D898D9A8D5AD3DC01CB0167
S1133C108B8F9C8FAD8FBE8F20E030E040E85FE358
S1133C206B8D7C8D8D8D9E8DF8D188232CF481E055
S1133C3090E098A38F8F3BC020E03FEF4FE757E41D
S1133C406B8D7C8D8D8D9E8D37D318163CF520E0C1
S1133C5030E040E251E46F89788D898D9A8D30D3BC
S1133C60DC01CB01BC01CD0149D2DC01CB0198A31D
S1133C708F8F0FC080E791E09AA389A389A19AA1AD
S1133C800197F1F79AA389A38F8D98A1019798A31F
S1133C908F8F8F8D98A1009769F713C06B8D7C8DE2
S1133CA08D8D9E8D2BD2DC01CB0198A38F8F8F8DB0
S1133CB098A19CA38BA38BA19CA10197F1F79CA332
S1133CC08BA389819A8101969A83898306C089810D
S1133CD09A818130910509F458CFA4960FB6F894CF
S1133CE0DEBF0FBECDBFDF91CF910895CF93DF9399
S1133CF0CDB7DEB7A4970FB6F894DEBF0FBECDBF25
S1133D0089E190E00E9448110E944D1080E090E00B
S1133D10A8E4B3E489879A87AB87BC8726E636E6AE
S1133D2046E655E469857A858B859C85C9D2DC0194
S1133D30CB018D879E87AF87B88B20E030E040E8C9
S1133D405FE36D857E858F85988967D188232CF400
S1133D5081E090E09A8B898B3BC020E03FEF4FE7F6
S1133D6057E46D857E858F859889A6D218163CF513
S1133D7020E030E040E251E469857A858B859C85BA
S1133D809FD2DC01CB01BC01CD01B8D1DC01CB0158
S1133D909A8B898B0FC080E791E09C8B8B8B8B89EE
S1133DA09C890197F1F79C8B8B8B89899A89019760
S1133DB09A8B898B89899A89009769F713C06D85D5
S1133DC07E858F8598899AD1DC01CB019A8B898B6A
S1133DD089899A899E8B8D8B8D899E890197F1F7AC
S1133DE09E8B8D8B81E090E09A838983A2C081E0D1
S1133DF00E94F40B882F90E09C838B8383E00E94C5
S1133E00F40B882F90E09E838D8382E00E94F40B54
S1133E10882F90E098878F83809104029091050207
S1133E209C018B819C818217930738F464E684E6B5
S1133E300E942D0D0E944D107CC00E945F1061E114
S1133E4081E00E94F5098FE092E00E94D70980E0AA
S1133E5090E0AAE7B4E48F8B988FA98FBA8F26E6F7
S1133E6036E646E655E46F89788D898D9A8D28D299
S1133E70DC01CB018B8F9C8FAD8FBE8F20E030E0B7
S1133E8040E85FE36B8D7C8D8D8D9E8DC6D088233D
S1133E902CF481E090E098A38F8F3BC020E03FEFAB
S1133EA04FE757E46B8D7C8D8D8D9E8D05D2181652
S1133EB03CF520E030E040E251E46F89788D898D53
S1133EC09A8DFED1DC01CB01BC01CD0117D1DC01FF
S1133ED0CB0198A38F8F0FC080E791E09AA389A3A9
S1133EE089A19AA10197F1F79AA389A38F8D98A12B
S1133EF0019798A38F8F8F8D98A1009769F713C0AE
S1133F006B8D7C8D8D8D9E8DF9D0DC01CB0198A3BA
S1133F108F8F8F8D98A19CA38BA38BA19CA10197BC
S1133F20F1F79CA38BA389819A8101969A83898353
S1133F3006C089819A818130910509F458CFA496ED
S1133F400FB6F894DEBF0FBECDBFDF91CF910895B9
S1133F505058BB27AA270ED075C166D130F06BD15B
S1133F6020F031F49F3F11F41EF45BC10EF4E09590
S1133F70E7FB51C1E92F77D180F3BA1762077307C2
S1133F808407950718F071F49EF58FC10EF4E0953F
S1133F900B2EBA2FA02D0B01B90190010C01CA01FF
S1133FA0A0011124FF27591B99F0593F50F4503EAA
S1133FB068F11A16F040A22F232F342F4427585F9C
S1133FC0F3CF469537952795A795F0405395C9F7B4
S1133FD07EF41F16BA0B620B730B840BBAF091506C
S1133FE0A1F0FF0FBB1F661F771F881FC2F70EC00B
S1133FF0BA0F621F731F841F48F4879577956795DE
S1134000B795F7959E3F08F0B3CF9395880F08F0C6
S11340109927EE0F979587950895D9D008F481E0F4
S113402008950CD00FC107D140F0FED030F021F438
S11340305F3F19F0F0C0511139C1F3C014D198F3A6
S11340409923C9F35523B1F3951B550BBB27AA2715
S113405062177307840738F09F5F5F4F220F331F87
S1134060441FAA1FA9F333D00E2E3AF0E0E830D053
S113407091505040E695001CCAF729D0FE2F27D056
S1134080660F771F881FBB1F261737074807AB0724
S1134090B0E809F0BB0B802DBF01FF2793585F4F99
S11340A02AF09E3F510568F0B6C000C15F3FECF3B3
S11340B0983EDCF3869577956795B795F7959F5F5E
S11340C0C9F7880F911D9695879597F90895E1E0B2
S11340D0660F771F881FBB1F621773078407BA0711
S11340E020F0621B730B840BBA0BEE1F88F7E0956C
S11340F0089504D06894B111D9C00895BCD088F053
S11341009F5790F0B92F9927B751A0F0D1F0660FBF
S1134110771F881F991F1AF0BA95C9F712C0B130DA
S113412081F0C3D0B1E00895C0C0672F782F8827ED
S1134130B85F39F0B93FCCF3869577956795B39519
S1134140D9F73EF490958095709561957F4F8F4F88
S11341509F4F0895E89409C097FB3EF4909580958D
S1134160709561957F4F8F4F9F4F9923A9F0F92F39
S113417096E9BB279395F695879577956795B795B7
S1134180F111F8CFFAF4BB0F11F460FF1BC06F5F9D
S11341907F4F8F4F9F4F16C0882311F096E911C0AF
S11341A0772321F09EE8872F762F05C0662371F0D0
S11341B096E8862F70E060E02AF09A95660F771FE4
S11341C0881FDAF7880F9695879597F90895990FC0
S11341D00008550FAA0BE0E8FEEF16161706E807CD
S11341E0F907C0F012161306E407F50798F0621BEE
S11341F0730B840B950B39F40A2661F0232B242BC3
S1134200252B21F408950A2609F4A140A6958FEFE1
S1134210811D811D089597F99F6780E870E060E033
S113422008959FEF80EC089500240A94161617064B
S113423018060906089500240A9412161306140693
S113424005060895092E0394000C11F4882352F0F6
S1134250BB0F40F4BF2B11F460FF04C06F5F7F4FAE
S11342608F4F9F4F089557FD9058440F551F59F095
S11342705F3F71F04795880F97FB991F61F09F3F4F
S113428079F087950895121613061406551FF2CF78
S11342904695F1DF08C0161617061806991FF1CFC8
S11342A086957105610508940895E894BB276627EF
S11342B07727CB0197F908958ADF08F48FEF0895E3
S11342C00BD0C0CFB1DF28F0B6DF18F0952309F08A
S11342D0A2CFA7CF1124EACFC6DFA0F3959FD1F3D5
S11342E0950F50E0551F629FF001729FBB27F00DA0
S11342F0B11D639FAA27F00DB11DAA1F649F6627F5
S1134300B00DA11D661F829F2227B00DA11D621F43
S1134310739FB00DA11D621F839FA00D611D221FFD
S1134320749F3327A00D611D231F849F600D211DE1
S1134330822F762F6A2F11249F5750408AF0E1F084
S113434088234AF0EE0FFF1FBB1F661F771F881FCD
S113435091505040A9F79E3F510570F05CCFA6CF15
S11343605F3FECF3983EDCF3869577956795B795B8
S1134370F795E7959F5FC1F7FE2B880F911D9695E2
S1134380879597F90895FA01EE0FFF1F30962105DE
S1134390310599F16115710561F48038BFE39B071C
S11343A049F168949038810561F08038BFEF9B072C
S11343B041F0992342F5FF3FE1053105210511F153
S11343C0E8940894E795D901AA2329F4AB2FBE2FCA
S11343D0F85FD0F310C0FF5F70F4A695E0F7F739EB
S11343E050F019F0FF3A38F49F779F930CD00F9058
S11343F007FC905808953EF014CF60E070E080E828
S11344009FE308954FE79F775F934F933F932F93D5
S11344109ED02F913F914F915F9152DF05C019F4C7
S11344200EF0F9CE42CFFDCE26DFC8F39638C0F7A2
S113443007F80F92E8942BE33AEA48EB5FE74EDF84
S11344400F920F920F924DB75EB70F92C0D0E4EE69
S1134450F0E016D04F915F91EF91FF91E595EE1F3B
S1134460FF1F49F0FE57E0684427EE0F441FFA95FA
S1134470E1F74195550B32D00F9007FE26C0089501
S1134480DF93CF931F930F93FF92EF92DF927B0101
S11344908C01689405C0DA2EEF011EDFFE01E8945A
S11344A0A5912591359145915591AEF3EF0162DDCA
S11344B0FE019701A801DA9479F7DF90EF90FF905D
S11344C00F911F91CF91DF9108959B01AC0160E0A2
S11344D070E080E89FE3A5CD9ECEACC0CCDEE8F3CF
S11344E09923D9F3940F511DBBF39150504094F08C
S11344F059F0882332F0660F771F881F915050407F
S1134500C1F79E3F510544F7880F911D96958795F5
S113451097F908955F3FACF0983E9CF0BB278695D1
S113452077956795B79508F4B1609395C1F7BB0F7C
S113453058F711F460FFE8CF6F5F7F4F8F4F9F4FA5
S1134540E3CFB4CE0EF076C06CCE689464CE93DE26
S1134550C8F39923D1F3C6F3DF93CF931F930F933B
S1134560FF92C92FDD2788232AF02197660F771F32
S1134570881FDAF720E030E040E85FEB9FE38839FA
S113458020F0803E30F021968F77E3DCECE0F1E020
S113459003C0DFDCE9E3F1E073DF8B01BE01EC0172
S11345A0FB2E6F5771097595771F880B990BD4DD16
S11345B028E132E741E35FE38FDEAF2D9801AE01DE
S11345C0FF900F911F91CF91DF91D4DC3BCEFA0184
S11345D0DC01AA0FBB1F9B01AC01BF5728F42227A3
S11345E03327442750781FC0B75188F4AB2F0024D9
S11345F0469537952795011CA395D2F3002069F0C1
S1134600220F331F441FB395DAF30DD0A1CC6130D0
S11346107105A0E88A07B94630F49B01AC0166270E
S1134620772788279078309621F02083318342833E
S1134630538308959F3F31F0915020F487957795E7
S11346406795B795880F911D9695879597F9089565
S1134650A29FB001B39FC001A39F700D811D1124BF
S1134660911DB29F700D811D1124911D0895F89420
S1054670FFCF76
S1134672F40114001400452D79616E7472610064B2
S10746826F6E6500EE
S9030000FC
