S00C000070726F782E737265634F
S1130000B2C00000CFC00000CDC00000CBC00000D3
S1130010C9C00000C7C00000C5C00000C3C00000C4
S1130020C1C00000BFC00000BDC00000BBC00000D4
S1130030B9C00000B7C00000B5C00000B3C00000E4
S1130040B1C00000AFC00000ADC00000ABC00000F4
S1130050A9C00000A7C00000A5C00000A3C0000004
S1130060A1C000009FC000009DC000009BC0000014
S113007099C0000097C0000095C0000093C0000024
S113008091C000008FC000008DC000008BC0000034
S113009089C0000087C0000085C0000083C0000044
S11300A081C000007FC000007DC000007BC0000054
S11300B079C0000077C0000075C0000073C0000064
S11300C071C000006FC000006DC000006BC0000074
S11300D069C0000067C0000065C0000063C0000084
S11300E061C0000007634236B79BD8A71A39685627
S11300F018AEBAAB558C1D3CB7CC5763BD6DEDFD46
S1130100753EF6177231BF000000803F0800000002
S1130110BE922449123EABAAAA2ABECDCCCC4C3EF8
S113012000000080BEABAAAAAA3E00000000BF00E7
S11301300000803F0000000000084178D3BB4387E3
S1130140D1133D190E3CC3BD4282AD2B3E68EC82F7
S113015076BED98FE1A93E4C80EFFFBE01C4FF7F7C
S11301603F000000000011241FBECFEFD1E2DEBF2C
S1130170CDBF00E00CBF12E0A0E0B2E0ECEBF0E198
S113018000E00BBF02C007900D92AA30B107D9F767
S113019022E0AAE0B2E001C01D92A132B207E1F769
S11301A066D38AC72DCF86E69EE00197F1F700005B
S11301B04098419880E388B9429A8FEF97E4019779
S11301C0F1F700C00000429886E69EE00197F1F73F
S11301D000004098419880E388B9429A8FEF97E4F1
S11301E00197F1F700C00000429886E69EE001976F
S11301F0F1F700004098419880E388B9429A8FEF64
S113020097E40197F1F700C00000429886E69EE06B
S11302100197F1F700004098419880E288B9429A2A
S11302208FEF97E40197F1F700C00000429808951A
S113023098B19F7098B998B1282F207F922B98B9C4
S113024040984198429AEFEFF7E43197F1F700C0F4
S11302500000429898B19F7098B998B18295807FB8
S1130260892B88B940984198429A8FEF97E4019777
S1130270F1F700C000004298089586E69EE00197D9
S1130280F1F7000088E2D4DF81E0D2DF86E0D0DF3E
S11302908EE0CEDF80E8CCCF089598B19F7098B9F6
S11302A098B1282F207F922B98B9409A4198429A6E
S11302B0EFEFF7E43197F1F700C00000429898B1EE
S11302C09F7098B998B18295807F892B88B9409A9C
S11302D04198429A8FEF97E40197F1F700C000002C
S11302E04298089580E8A4CF0895823069F018F404
S11302F0813031F00895833059F0843069F00895E5
S11303008FE7860F95CF08958FEB860F91CF0895D1
S113031083E9860F8DCF089583ED860F89CF0895E5
S11303200F931F93CF93DF938A01E901882311F080
S1130330611102C0D7DF01C0D8DFC530D10509F093
S1130340CDC09801329522952F7023273F70232723
S1130350A7E4B3E0A2D6969587959695879596954A
S11303608795C09690930E0280930D0296DF9801B4
S1130370369527953695279536952795A5ECB0E2C1
S11303808CD6AC01529542954F7045275F70452736
S113039050931102409310029A01ADECBCEC7DD64F
S11303A09695879596958795969587959C01220FA6
S11303B0331F880F991F880F991F880F991F820F69
S11303C0931F481B590BCA01C09690931E02809339
S11303D01D0263DF04C0C330D10509F084C0980155
S11303E03695279536952795ABE7B4E156D6AC01FB
S11303F05695479550931102409310029A01ADEC23
S1130400BCEC4BD69695879596958795969587954A
S11304109C01220F331F880F991F880F991F880F83
S1130420991F820F931F481B590BCA01C0969093C2
S113043019028093180231DF9801ADECBCEC2DD683
S1130440AC015695479556954795569547955093C3
S11304501102409310029A0120D69695879596959D
S11304608795969587959C01220F331F880F991FB6
S1130470880F991F880F991F820F931F481B590BD0
S1130480CA01C096909317028093160206DF03C038
S1130490C130D105F1F49801ADECBCECFED59695D4
S11304A0879596958795969587959C01220F331F7E
S11304B0880F991F880F991F880F991F820F931F08
S11304C0081B190BC801C09690931C0280931B0251
S11304D0E4DE269764F085E4E0DE09C0C430D1058B
S11304E009F079CF44CFC230D10591F6A5CFDF9181
S11304F0CF911F910F91089587B1876F87B988B104
S1130500807888B9089510BA11BA10920701109230
S113051008010895EAE7F0E0108210927B0080E27F
S113052080937C0080E880BF86E8808308958830CB
S113053018F098E090937B008770806280937C0031
S1130540EAE7F0E0808180648083808184FFFDCFCE
S113055080917900EAE7F0E09081906190831092B5
S11305607B000895682F70E080E090E040D32FEE88
S113057039EC43E95FE32CD49B01AC0160E070E00B
S113058080E89FE39BD22AE939EF4EE255E4BDD3DC
S113059020E030E040E251E4B8D3F8D2CB0161323C
S11305A023E0720710F080E293E0089581B18F6038
S11305B081B982B1807F82B9EAE0F1E0808188610B
S11305C08083EBE0F1E0808188618083089594DF8B
S11305D09ADFECCF089592B1907F8F70982B92B9E7
S11305E0089586E0F8CF089580E0F5CF089585E07A
S11305F0F2CF08958AE0EFCF089589E0ECCF089513
S1130600259A2D9A0895269A2E9A0895F9DFFBCFFC
S11306100895E1E2F1E010828FEF8093250191E0EB
S113062090932401109229018093280110922B01A8
S113063080932A0110922D0180932C0189EA8093E2
S113064020018BE080830895F894C1DF63DF15DE19
S1130650E0DF78940895E1E8F0E010828CEF809375
S1130660850081E08093840093E0909389008FEF6C
S11306708093880090938B0080938A0090938D00E0
S113068080938C0090938700809386008BEA8093FC
S11306908000109282008CE080830895F894B6DF85
S11306A0DADF789408951092890083E280938800B9
S11306B02FEF8FE79AE3215080409040E1F700C08C
S11306C0000010928B008EE480938A002FEF8FE756
S11306D09AE3215080409040E1F700C0000010925E
S11306E0890083E580938800089510928B0083E24B
S11306F080938A000895EF92FF920F931F93CF93F4
S1130700DF9381E014DFC82FD0E083E010DFE82E10
S1130710F12C82E00CDF082F10E0209102023091CE
S11307200302C217D30738F58091000290910102A9
S11307308017910780F4E216F30668F481E680934B
S1130740280180932A014DDF209102023091030297
S1130750C217D30780F48091000290910102081718
S1130760190748F42E153F0530F480E580932801DD
S113077080932A013FDF20910202309103022C175B
S11307803D0780F480910002909101020817190737
S113079048F4E216F30630F480E580932801809350
S11307A02A0125DFDF91CF911F910F91FF90EF90E8
S11307B00895EF92FF920F931F93CF93DF9381E0FD
S11307C0B6DEC82FD0E083E0B2DEE82EF12C82E062
S11307D0AEDE082F10E02091020230910302C2170E
S11307E0D30738F580910002909101028017910798
S11307F080F4E216F30668F486E980932801809376
S11308002A01FBDE2091020230910302C217D307B2
S113081080F480910002909101020817190748F4AE
S11308202E153F0530F480E58093280180932A013A
S1130830E1DE20910202309103022C173D0780F47F
S113084080910002909101020817190748F4E216FA
S1130850F30630F480E58093280180932A01C7DEF3
S1130860DF91CF911F910F91FF90EF900895CF9258
S1130870DF92EF92FF920F931F93CF93DF932FEFAB
S11308808FEF90EE215080409040E1F700C00000CF
S1130890DBDE89DC03DF54C081E049DE83E047DE30
S11308A082E045DE46C089E042DE80930C025ADED7
S11308B090930B0280930A0223E030E0AC016EE0D7
S11308C082E02EDD80910A0290910B0220910402B5
S11308D0309105022817390728F48D31914010F41E
S11308E00ADF27C081DEFFEF2FEF8CE2F1502040BA
S11308F08040E1F700C00000D6DE9FEFEFEFFCE29E
S11309009150E040F040E1F700C00000EEDE2FEF30
S11309108FEF98E0215080409040E1F700C0000044
S113092080910602909107020196909307028093AA
S113093006028091060290910702019709F4B3CF51
S11309408091080290910902019709F4A5CF08E269
S113095011E00F2EF6E9FF2EF02DCAE2D1E037C0E8
S113096081E0E5DDE82E83E0E2DDC82E82E0DFDD14
S1130970D82E1FDF20910202309103024E2D50E049
S11309802417350720F56D2D70E040910002509139
S1130990010246175707D8F48C2D90E02817390721
S11309A0B0F4F801F082F88222DEFFEF2FE386E252
S11309B0F15020408040E1F700C00000809108021F
S11309C09091090201969093090280930802809104
S11309D0080290910902029709F4C2CF80E090E0E6
S11309E0DF91CF911F910F91FF90EF90DF90CF9007
S11309F008955058BB27AA270ED04DC13ED130F0E0
S1130A0043D120F031F49F3F11F41EF433C10EF4AE
S1130A10E095E7FB29C1E92F4FD180F3BA176207AC
S1130A2073078407950718F071F49EF567C10EF4F7
S1130A30E0950B2EBA2FA02D0B01B90190010C01EA
S1130A40CA01A0011124FF27591B99F0593F50F402
S1130A50503E68F11A16F040A22F232F342F44275A
S1130A60585FF3CF469537952795A795F040539552
S1130A70C9F77EF41F16BA0B620B730B840BBAF022
S1130A809150A1F0FF0FBB1F661F771F881FC2F78D
S1130A900EC0BA0F621F731F841F48F487957795A1
S1130AA06795B795F7959E3F08F0B3CF9395880F58
S1130AB008F09927EE0F9795879508950CD0EBC011
S1130AC0E3D040F0DAD030F021F45F3F19F0CCC02D
S1130AD0511115C1CFC0F0D098F39923C9F3552310
S1130AE0B1F3951B550BBB27AA276217730784071D
S1130AF038F09F5F5F4F220F331F441FAA1FA9F3D3
S1130B0033D00E2E3AF0E0E830D091505040E695C4
S1130B10001CCAF729D0FE2F27D0660F771F881F25
S1130B20BB1F261737074807AB07B0E809F0BB0B14
S1130B30802DBF01FF2793585F4F2AF09E3F510538
S1130B4068F092C0DCC05F3FECF3983EDCF386951E
S1130B5077956795B795F7959F5FC9F7880F911DAE
S1130B609695879597F90895E1E0660F771F881F9A
S1130B70BB1F621773078407BA0720F0621B730B4D
S1130B80840BBA0BEE1F88F7E095089504D068949F
S1130B90B111B5C0089598D088F09F5790F0B92F3F
S1130BA09927B751A0F0D1F0660F771F881F991FBE
S1130BB01AF0BA95C9F712C0B13081F09FD0B1E0F4
S1130BC008959CC0672F782F8827B85F39F0B93F04
S1130BD0CCF3869577956795B395D9F73EF49095C0
S1130BE08095709561957F4F8F4F9F4F0895E8943E
S1130BF009C097FB3EF490958095709561957F4F61
S1130C008F4F9F4F9923A9F0F92F96E9BB2793950E
S1130C10F695879577956795B795F111F8CFFAF41E
S1130C20BB0F11F460FF1BC06F5F7F4F8F4F9F4F4F
S1130C3016C0882311F096E911C0772321F09EE8AD
S1130C40872F762F05C0662371F096E8862F70E013
S1130C5060E02AF09A95660F771F881FDAF7880FED
S1130C609695879597F9089597F99F6780E870E0BE
S1130C7060E008959FEF80EC089500240A9416160E
S1130C80170618060906089500240A941216130676
S1130C90140605060895092E0394000C11F4882304
S1130CA052F0BB0F40F4BF2B11F460FF04C06F5F20
S1130CB07F4F8F4F9F4F089557FD9058440F551FF6
S1130CC059F05F3F71F04795880F97FB991F61F0CA
S1130CD09F3F79F087950895121613061406551F41
S1130CE0F2CF4695F1DF08C0161617061806991FAD
S1130CF0F1CF86957105610508940895E894BB27A2
S1130D0066277727CB0197F908950BD0C4CFB5DFB9
S1130D1028F0BADF18F0952309F0A6CFABCF112441
S1130D20EECFCADFA0F3959FD1F3950F50E0551F86
S1130D30629FF001729FBB27F00DB11D639FAA272C
S1130D40F00DB11DAA1F649F6627B00DA11D661F7B
S1130D50829F2227B00DA11D621F739FB00DA11D9C
S1130D60621F839FA00D611D221F749F3327A00D56
S1130D70611D231F849F600D211D822F762F6A2FF2
S1130D8011249F5750408AF0E1F088234AF0EE0F77
S1130D90FF1FBB1F661F771F881F91505040A9F784
S1130DA09E3F510570F060CFAACF5F3FECF3983EB1
S1130DB0DCF3869577956795B795F795E7959F5FEB
S1130DC0C1F7FE2B880F911D9695879597F9089585
S1130DD0FA01EE0FFF1F30962105310599F16115D7
S1130DE0710561F48038BFE39B0749F1689490383A
S1130DF0810561F08038BFEF9B0741F0992342F5EC
S1130E00FF3FE1053105210511F1E8940894E795C8
S1130E10D901AA2329F4AB2FBE2FF85FD0F310C059
S1130E20FF5F70F4A695E0F7F73950F019F0FF3A38
S1130E3038F49F779F930CD00F9007FC9058089537
S1130E403EF018CF60E070E080E89FE308954FE73C
S1130E509F775F934F933F932F939ED02F913F9112
S1130E604F915F9152DF05C019F40EF0FDCE46CFCD
S1130E7001CF2ADFC8F39638C0F707F80F92E89439
S1130E802BE33AEA48EB5FE74EDF0F920F920F92A3
S1130E904DB75EB70F92C0D0E4EEF0E016D04F919C
S1130EA05F91EF91FF91E595EE1FFF1F49F0FE570B
S1130EB0E0684427EE0F441FFA95E1F74195550B7E
S1130EC032D00F9007FE26C00895DF93CF931F936F
S1130ED00F93FF92EF92DF927B018C01689405C01F
S1130EE0DA2EEF011EDFFE01E894A59125913591DC
S1130EF045915591AEF3EF018EDDFE019701A801F6
S1130F00DA9479F7DF90EF90FF900F911F91CF91D2
S1130F10DF9108959B01AC0160E070E080E89FE3FD
S1130F20CDCDA2CEACC0D0DEE8F39923D9F3940F93
S1130F30511DBBF39150504094F059F0882332F086
S1130F40660F771F881F91505040C1F79E3F51058F
S1130F5044F7880F911D9695879597F908955F3FFB
S1130F60ACF0983E9CF0BB27869577956795B7952E
S1130F7008F4B1609395C1F7BB0F58F711F460FF03
S1130F80E8CF6F5F7F4F8F4F9F4FE3CFB8CE0EF008
S1130F9076C070CE689468CE97DEC8F39923D1F3F7
S1130FA0C6F3DF93CF931F930F93FF92C92FDD27CF
S1130FB088232AF02197660F771F881FDAF720E02D
S1130FC030E040E85FEB9FE3883920F0803E30F06A
S1130FD021968F770FDDECE0F1E003C00BDDE9E350
S1130FE0F1E073DF8B01BE01EC01FB2E6F57710939
S1130FF07595771F880B990BFCDD28E132E741E3F7
S11310005FE38FDEAF2D9801AE01FF900F911F912A
S1131010CF91DF9100DD3FCEFA01DC01AA0FBB1FA7
S11310209B01AC01BF5728F422273327442750786B
S11310301FC0B75188F4AB2F0024469537952795E8
S1131040011CA395D2F3002069F0220F331F441F23
S1131050B395DAF30DD0CDCC61307105A0E88A07E1
S1131060B94630F49B01AC0166277727882790782E
S1131070309621F0208331834283538308959F3F28
S113108031F0915020F4879577956795B795880F3F
S1131090911D9695879597F90895A29FB001B39FE6
S11310A0C001A39F700D811D1124911DB29F700D6D
S10F10B0811D1124911D0895F894FFCFB8
S10D10BC15001400500001000100AB
S9030000FC
